:020000040000FA
:1000000083160030860085008312860000308D0044
:100010008E00C030CB00102000308D008E000B28E9
:10002000031100308D000E082920BB001D208E0A10
:100030003B08903C031D1028080003110D082920DF
:10004000CB00903C3D208D0A4B08903C031D1D28A1
:1000500008008207C034F934A434B034993492349F
:100060008234F8348034903404309C001E309D007B
:100070009C0B38289D0B382808001E309E003B083A
:100080008600013085003420003085004B08860052
:10009000023085003420003085009E0B3F28080088
:00000001FF
