:020000040000FA
:10000000831600308600850083120030850086004C
:100010000A2008280D082B209A008D0A00308E0037
:1000200014208D1D0A2808000E082B209B00342068
:100030008E0A8E1D14280030820008000230CA008B
:100040000230CB000130CC00CC0B2428CB0B242871
:10005000CA0B242808008207C034F934A434B03411
:10006000993492348234F83406309C000130850093
:100070001A0886001E20023085001B0886001E20FC
:060080009C0B362808006D
:00000001FF
