:020000040000FA
:1000000007309F00831600308600FF308500D23015
:100010008100831200308B008B1683120030AB00FE
:10002000A90086000030A7000130A0000230A10026
:100030000330A2000030AD000030AB00A900AD00DD
:100040000518292085182D200519312085193520FE
:100050001C282708A800392008002008A8003920FB
:1000600008002108A800392008002208A80039202B
:100070000800A81DA720A819A020281DA72028191E
:10008000A020A81CA720A818A020281CA72028185A
:10009000A020A9094E206220872008000614D42041
:1000A0000614CA200610CA200614CA200610CA2048
:1000B0000614CA200610CA200614CA200610CA2038
:1000C000D42008000614D420291C9A2029189D2029
:1000D000A91C9A20A9189D20291D9A2029199D2024
:1000E000A91D9A20A9199D20291E9A20291A9D2010
:1000F000A91E9A20A91A9D20291F9A20291B9D20FC
:10010000A91F9A20A91B9D200610CA200800D420F0
:100110000614CA200610CA200614CA200610CA20D7
:100120000614CA200610CA200614CA200610CA20C7
:10013000D42008000610CA2008000614CA200800AF
:100140008030A906A90D0030A906A90D08000030CD
:10015000A906A90D0130A906A90D08002908A800C3
:10016000A81BC220A81FC620A81AC220A81EC620ED
:10017000A819C220A81DC620A818C220A81CC620E5
:10018000AD0C08000130AD06AD0D08000030AD0625
:10019000AD0D080081010830AC000B1DCD280B11FE
:1001A000AC0BCD280B11080081012F30AC000B1DCA
:0C01B000D7280B11AC0BD7280B1108004E
:00000001FF
