:020000040000FA
:1000000007309F00831600308600FF308500D23015
:100010008100831200308B008B1683120030AB00FE
:10002000A900013086000030A7000130A000023096
:10003000A1000330A2000030AD0006140030AB0078
:10004000A900AD0005182B2085182F200519332095
:10005000851937201D282708A8003B200800200804
:10006000A8003B2008002108A8003B200800220827
:10007000A8003B200800A81DAB20A819A420281D1B
:10008000AB202819A420A81CAB20A818A420281C49
:10009000AB202818A420A9095120532066208B20CA
:1000A000080006100800D8200614CE200610CE2026
:1000B0000614CE200610CE200614CE200610CE2028
:1000C0000614CE200610CE20D82008000614D82012
:1000D000291C9E202918A120A91C9E20A918A12016
:1000E000291D9E202919A120A91D9E20A919A12002
:1000F000291E9E20291AA120A91E9E20A91AA120EE
:10010000291F9E20291BA120A91F9E20A91BA120D9
:100110000610CE200800D8200614CE200610CE20CF
:100120000614CE200610CE200614CE200610CE20B7
:100130000614CE200610CE20D82008000610CE20AF
:1001400008000614CE2008008030A906A90D003052
:10015000A906A90D08000030A906A90D0130A906BD
:10016000A90D08002908A800A81BC620A81FCA209E
:10017000A81AC620A81ECA20A819C620A81DCA20D1
:10018000A818C620A81CCA20AD0C08000130AD0676
:10019000AD0D08000030AD06AD0D0800810108303E
:1001A000AC000B1DD1280B11AC0BD1280B11080092
:1001B00081012F30AC000B1DDB280B11AC0BDB28B1
:0401C0000B11080017
:00000001FF
