:020000040000FA
:1000000083168601FF30850083120F308C000E307E
:100010008D000C308E000830900086019101031194
:1000200005080C0603192920031105080D060319FC
:100030002F20031105080E060319342003110508AB
:1000400010060319392003110508110603193F2072
:100050000F28061286110611861006140800861154
:100060000611861406100800861106158610061063
:1000700008000616861506118610061008000616DA
:0A0080008615061186100610080010
:00000001FF
