:020000040000FA
:10000000831600308600850083120030850086004C
:1000100038303B2080303B2014303B200E303B20DA
:100020000C303B205F303420453034204C303420BD
:10003000433034204F3034204D303420453034208C
:1000400001303B2012280130CD000230CA000030C0
:10005000CB000030CC00CC0B2B28CB0B2B28CA0BB1
:100060002B28CD0B2528080086000530850023208D
:100070000430850008008600013085002320003010
:0400800085000800EF
:00000001FF
