:020000040000FA
:1000000007309F0083160030860001308500D23013
:100010008100831200308B008B1600308600003088
:10002000A5000130A6000230A7000330A800AA30C6
:10003000AE000030A000A200AC00A40005182120F2
:1000400019281121051CF3200518F8200721051C8B
:10005000F3200518F8200721051CF3200518F820C7
:100060000721051CF3200518F8200721051CF320A3
:100070000518F8200721051CF3200518F820072192
:10008000051CF3200518F8200721051CF32005188E
:10009000F8200721AD0DAD0D11210311AA30AD06D9
:1000A0000319532008008D2003112C082E06031974
:1000B000252103112C082E0603195F2008000311C7
:1000C000220828060319872003112208270603198E
:1000D000812003112208260603197B200311220820
:1000E0002506031975200311080006140130AB061C
:1000F0002B088600080086140230AB062B08860009
:10010000080006150430AB062B088600080086158B
:100110000830AB062B088600080005141121051CC9
:10012000FD20051802210721051CFD2005180221CC
:100130000721051CFD20051802210721051CFD20B3
:10014000051802210721051CFD20051802210721A1
:10015000051CFD20051802210721051CFD2005189E
:1001600002210721051CFD20051802210721051089
:100170000721A00DBC2008001121051CE92005184D
:10018000EE200721051CE9200518EE200721051C9B
:10019000E9200518EE200721051CE9200518EE20AE
:1001A0000721051CE9200518EE200721051CE92080
:1001B0000518EE200721051CE9200518EE2007216F
:1001C000051CE9200518EE200721AC0DAC0D11210E
:1001D000080085100030AC06AC0C08008514803097
:1001E000AC06AC0C080085100030AD06AD0C080064
:1001F00085148030AD06AD0C080085100030A006D7
:10020000A00C080085148030A006A00C0800810115
:100210000830A3000B1D0A290B11A30B0A290B118F
:10022000080081012F30A3000B1D14290B11A30B13
:1002300014290B1108008101E330A3000B1D1E29B6
:100240000B11A30B1E290B1108002008A100A11BF4
:100250003921A11F3D21A11A3921A11E3D21A1193A
:100260003921A11D3D21A1183921A11C3D21A20C3C
:1002700008000130A206A20D08000030A206A20D5F
:02028000080074
:00000001FF
