:020000040000FA
:1000000007309F0083160030860005308500D2300F
:100010008100831200308B008B1600308600003088
:10002000A5000130A6000230A7000330A800AA30C6
:10003000AE000A30B0002021B00B1B280030A00019
:10004000A200AC00A400051C26201E281621051CB9
:10005000F8200518FD200C21051CF8200518FD20AE
:100060000C21051CF8200518FD200C21051CF8208A
:100070000518FD200C21051CF8200518FD200C2179
:10008000051CF8200518FD200C21051CF82005187A
:10009000FD200C21051CF8200518FD200C21AD0DBC
:1000A000AD0D16210311AA30AD0603195820080022
:1000B000922003112C082E060319342103112C0859
:1000C0002E060319642008000311220828060319CC
:1000D0008C20031122082706031986200311220809
:1000E00026060319802003112208250603197A2009
:1000F0000311080006140130AB062B088600080027
:1001000086140230AB062B08860008000615043062
:10011000AB062B088600080086150830AB062B08B6
:100120008600080005141621051C02210518072168
:100130000C21051C0221051807210C21051C022198
:10014000051807210C21051C0221051807210C2187
:10015000051C0221051807210C21051C0221051888
:1001600007210C21051C0221051807210C21051C63
:100170000221051807210C2105100C21A00DC1201A
:1001800008001621051CEE200518F3200C21051C83
:10019000EE200518F3200C21051CEE200518F32095
:1001A0000C21051CEE200518F3200C21051CEE2067
:1001B0000518F3200C21051CEE200518F3200C2156
:1001C000051CEE200518F3200C21051CEE20051857
:1001D000F3200C21AC0DAC0D162108008510003069
:1001E000AC06AC0C080085148030AC06AC0C0800E2
:1001F00085100030AD06AD0C080085148030AD06CA
:10020000AD0C080085100030A006A00C0800851475
:100210008030A006A00C080081010830A3000B1D4F
:100220000F290B11A30B0F290B11080081012F308F
:10023000A3000B1D19290B11A30B19290B11080081
:100240008101E330A3000B1D23290B11A30B2329EC
:100250000B11080081019C30A3000B1D2D290B11EF
:10026000A30B2D290B1108002008A100A11B482178
:10027000A11F4C21A11A4821A11E4C21A1194821DE
:10028000A11D4C21A1184821A11C4C21A20C080041
:100290000130A206A20D08000030A206A20D08003F
:00000001FF
