:020000040000FA
:1000000083160030860004308500831200308E0095
:100010008C008D009400C03092009300FF3085006A
:10002000051D30200519322060201308883C031973
:1000300024201208883C03191E201028C03092008A
:100040008D018D0A031108008C018C0AC0309300C9
:10005000141C2C20031108008D0A4920920008006E
:100060008E0108000E1C352008003B209300FF3055
:100070008E008C0A080094010C088207C034F93401
:10008000A434B034993492348234F83480349034C7
:10009000883414140D088207C034F934A434B03401
:1000A000993492348234F834803490348834013076
:1000B000910014308F00910B5B288F0B5B28080098
:1000C000043090001308860002308500572000306D
:1000D0008500120886000130850057200030850019
:0600E000900B62280800ED
:00000001FF
